{
  "contractName": "TrezorMultiSig2of3",
  "abi": [
    {
      "constant": true,
      "inputs": [],
      "name": "unchainedMultisigVersionMajor",
      "outputs": [
        {
          "name": "",
          "type": "uint256"
        }
      ],
      "payable": false,
      "stateMutability": "view",
      "type": "function"
    },
    {
      "constant": true,
      "inputs": [],
      "name": "spendNonce",
      "outputs": [
        {
          "name": "",
          "type": "uint256"
        }
      ],
      "payable": false,
      "stateMutability": "view",
      "type": "function"
    },
    {
      "constant": true,
      "inputs": [],
      "name": "unchainedMultisigVersionMinor",
      "outputs": [
        {
          "name": "",
          "type": "uint256"
        }
      ],
      "payable": false,
      "stateMutability": "view",
      "type": "function"
    },
    {
      "inputs": [
        {
          "name": "owner1",
          "type": "address"
        },
        {
          "name": "owner2",
          "type": "address"
        },
        {
          "name": "owner3",
          "type": "address"
        }
      ],
      "payable": false,
      "stateMutability": "nonpayable",
      "type": "constructor"
    },
    {
      "payable": true,
      "stateMutability": "payable",
      "type": "fallback"
    },
    {
      "anonymous": false,
      "inputs": [
        {
          "indexed": false,
          "name": "new_balance",
          "type": "uint256"
        }
      ],
      "name": "Funded",
      "type": "event"
    },
    {
      "anonymous": false,
      "inputs": [
        {
          "indexed": false,
          "name": "to",
          "type": "address"
        },
        {
          "indexed": false,
          "name": "transfer",
          "type": "uint256"
        },
        {
          "indexed": false,
          "name": "data",
          "type": "bytes"
        }
      ],
      "name": "Spent",
      "type": "event"
    },
    {
      "constant": true,
      "inputs": [
        {
          "name": "destination",
          "type": "address"
        },
        {
          "name": "value",
          "type": "uint256"
        },
        {
          "name": "data",
          "type": "bytes"
        }
      ],
      "name": "generateMessageToSign",
      "outputs": [
        {
          "name": "",
          "type": "bytes32"
        }
      ],
      "payable": false,
      "stateMutability": "view",
      "type": "function"
    },
    {
      "constant": false,
      "inputs": [
        {
          "name": "destination",
          "type": "address"
        },
        {
          "name": "value",
          "type": "uint256"
        },
        {
          "name": "data",
          "type": "bytes"
        },
        {
          "name": "v1",
          "type": "uint8"
        },
        {
          "name": "r1",
          "type": "bytes32"
        },
        {
          "name": "s1",
          "type": "bytes32"
        },
        {
          "name": "v2",
          "type": "uint8"
        },
        {
          "name": "r2",
          "type": "bytes32"
        },
        {
          "name": "s2",
          "type": "bytes32"
        }
      ],
      "name": "spend",
      "outputs": [],
      "payable": false,
      "stateMutability": "nonpayable",
      "type": "function"
    }
  ],
  "bytecode": "0x608060405260006001556001600255600060035534801561001f57600080fd5b50604051606080610a538339810160409081528151602083015191909201516000600160a060020a038416151561005557600080fd5b600160a060020a03838116908216141561006e57600080fd5b600160a060020a03828116908216141561008757600080fd5b600160a060020a0384811690841614156100a057600080fd5b600160a060020a0383811690831614156100b957600080fd5b600160a060020a0384811690831614156100d257600080fd5b50600160a060020a039283166000908152602081905260408082208054600160ff19918216811790925594861683528183208054861682179055929094168152928320805490921617905561092690819061012d90396000f30060806040526004361061006c5763ffffffff7c010000000000000000000000000000000000000000000000000000000060003504166323eb861c81146100ab578063843b1a09146100d2578063a7dd7a59146100e7578063b0aa9f18146100fc578063e56c050c14610165575b60408051600160a060020a03301631815290517fc4c14883ae9fd8e26d5d59e3485ed29fd126d781d7e498a4ca5c54c8268e49369181900360200190a1005b3480156100b757600080fd5b506100c06101f5565b60408051918252519081900360200190f35b3480156100de57600080fd5b506100c06101fb565b3480156100f357600080fd5b506100c0610201565b34801561010857600080fd5b50604080516020600460443581810135601f81018490048402850184019095528484526100c0948235600160a060020a03169460248035953695946064949201919081908401838280828437509497506102079650505050505050565b34801561017157600080fd5b50604080516020600460443581810135601f81018490048402850184019095528484526101f3948235600160a060020a03169460248035953695946064949201919081908401838280828437509497505060ff85358116965060208601359560408101359550606081013590911693506080810135925060a0013590506102ec565b005b60025481565b60015481565b60035481565b60008030600160a060020a031685600160a060020a03161415151561022b57600080fd5b600154308486886040518086815260200185600160a060020a0316600160a060020a03166c0100000000000000000000000002815260140184805190602001908083835b6020831061028e5780518252601f19909201916020918201910161026f565b51815160209384036101000a6000190180199092169116179052920194855250600160a060020a03929092166c0100000000000000000000000002918301919091525060405160349181900391909101902098975050505050505050565b600160a060020a0330163188111561030357600080fd5b610314898989898989898989610474565b151561031f57600080fd5b60015460010160018190555088600160a060020a0316888860405180828051906020019080838360005b83811015610361578181015183820152602001610349565b50505050905090810190601f16801561038e5780820380516001836020036101000a031916815260200191505b5091505060006040518083038185875af19250505015156103ae57600080fd5b7f9e01792b189582992069ab6b8b97bd86f36a434ad0482d5163c3faaf7d3c84ce8989896040518084600160a060020a0316600160a060020a0316815260200183815260200180602001828103825283818151815260200191508051906020019080838360005b8381101561042d578181015183820152602001610415565b50505050905090810190601f16801561045a5780820380516001836020036101000a031916815260200191505b5094505050505060405180910390a1505050505050505050565b6000806000806104858d8d8d610599565b92506001838b601b018b8b604051600081526020016040526040518085600019166000191681526020018460ff1660ff1681526020018360001916600019168152602001826000191660001916815260200194505050505060206040516020810390808403906000865af1158015610501573d6000803e3d6000fd5b505060408051601f1980820151600080845260208481018087528a905260ff601b8f011685870152606085018d9052608085018c905294519197506001955060a0808501959493830193839003019190865af1158015610565573d6000803e3d6000fd5b50505060206040510351905061057b82826106d4565b151561058657600080fd5b5060019c9b505050505050505050505050565b6000806060806105aa878787610207565b92506105b583610746565b91506040805190810160405280601a81526020017f19457468657265756d205369676e6564204d6573736167653a0a000000000000815250905080825160f860020a02836040518084805190602001908083835b602083106106285780518252601f199092019160209182019101610609565b51815160209384036101000a60001901801990921691161790527fff000000000000000000000000000000000000000000000000000000000000008716919093019081528451600190910192850191508083835b6020831061069b5780518252601f19909201916020918201910161067c565b5181516020939093036101000a600019018019909116921691909117905260405192018290039091209c9b505050505050505050505050565b6000600160a060020a0383811690831614156106ef57600080fd5b600160a060020a03831660009081526020819052604090205460ff16151561071657600080fd5b600160a060020a03821660009081526020819052604090205460ff16151561073d57600080fd5b50600192915050565b6040805181815260608082018352918291600091829182918291906020820161080080388339019050509450600093505b60208410156108725786846020811061078c57fe5b1a60f860020a02925060108360f860020a900460ff168115156107ab57fe5b0460f860020a0291508160f860020a90046010028360f860020a90040360f860020a0290506107d98261087d565b85856002028151811015156107ea57fe5b9060200101907effffffffffffffffffffffffffffffffffffffffffffffffffffffffffffff1916908160001a9053506108238161087d565b858560020260010181518110151561083757fe5b9060200101907effffffffffffffffffffffffffffffffffffffffffffffffffffffffffffff1916908160001a905350600190930192610777565b509295945050505050565b60007f0a000000000000000000000000000000000000000000000000000000000000007fff00000000000000000000000000000000000000000000000000000000000000831610156108e1578160f860020a900460300160f860020a0290506108f5565b8160f860020a900460570160f860020a0290505b9190505600a165627a7a72305820d5424e72a35207819b472d2d5af70e6697672f47cc4d463575fbd9735f86d8bb0029",
  "source": "pragma solidity 0.4.23;\n\n// A 2/3 multisig contract which is compatible with Trezor-signed messages.\n//\n// To authorize a spend, two signtures must be provided by 2 of the 3 owners.\n// To generate the message to be signed, provide the destination address and\n// spend amount (in wei) to the generateMessageToSignmethod.\n// The signatures must be provided as the (v, r, s) hex-encoded coordinates.\n// The S coordinate must be 0x00 or 0x01 corresponding to 0x1b and 0x1c, respectively.\n// See the test file for example inputs.\n//\n// If you use other software than the provided dApp or scripts to sign the message,\n// verify that the message shown by the trezor device matches the generated message in hex.\n//\n// WARNING: The generated message is only valid until the next spend is executed.\n//          after that, a new message will need to be calculated.\n//\n// WARNING: The signing algorithm Trezor uses is different than that\n// of Ledger, Geth, Etc. This contract is for Trezor managed private\n// keys ONLY.\n//\n// ADDITIONAL WARNING: This contract is **NOT** ERC20 compatible.\n// Tokens sent to this contract will be lost forever.\n//\ncontract TrezorMultiSig2of3 {\n\n  // The 3 addresses which control the funds in this contract.  The\n  // owners of 2 of these addresses will need to both sign a message\n  // allowing the funds in this contract to be spent.\n  mapping(address => bool) private owners;\n\n  // The contract nonce is not accessible to the contract so we\n  // implement a nonce-like variable for replay protection.\n  uint256 public spendNonce = 0;\n\n  // Contract Versioning\n  uint256 public unchainedMultisigVersionMajor = 1;\n  uint256 public unchainedMultisigVersionMinor = 0;   \n\n  // An event sent when funds are received.\n  event Funded(uint new_balance);\n  \n  // An event sent when a spend is triggered to the given address.\n  event Spent(address to, uint transfer, bytes data);\n\n  // Instantiate a new Trezor Multisig 2 of 3 contract owned by the\n  // three given addresses\n  constructor(address owner1, address owner2, address owner3) public {\n    address zeroAddress = 0x0;\n    \n    require(owner1 != zeroAddress);\n    require(owner2 != zeroAddress);\n    require(owner3 != zeroAddress);\n\n    require(owner1 != owner2);\n    require(owner2 != owner3);\n    require(owner1 != owner3);\n    \n    owners[owner1] = true;\n    owners[owner2] = true;\n    owners[owner3] = true;\n  }\n\n  // The fallback function for this contract.\n  function() public payable {\n    emit Funded(address(this).balance);\n  }\n\n  // Generates the message to sign given the output destination address and amount.\n  // includes this contract's address and a nonce for replay protection.\n  // One option to  independently verify: https://leventozturk.com/engineering/sha3/ and select keccak\n  function generateMessageToSign(address destination, uint256 value, bytes data) public constant returns (bytes32) {\n    require(destination != address(this));\n    bytes32 message = keccak256(spendNonce, this, data, value, destination);\n    return message;\n  }\n  \n  // Send the given amount of ETH to the given destination using\n  // the two triplets (v1, r1, s1) and (v2, r2, s2) as signatures.\n  // s1 and s2 should be 0x00 or 0x01 corresponding to 0x1b and 0x1c respectively.\n  function spend(address destination, uint256 value, bytes data,\n    uint8 v1, bytes32 r1, bytes32 s1, uint8 v2, bytes32 r2, bytes32 s2) public {\n    // This require is handled by generateMessageToSign()\n    // require(destination != address(this));\n    require(address(this).balance >= value);\n    require(_validSignature(destination, value, data, v1, r1, s1, v2, r2, s2));\n    spendNonce = spendNonce + 1;\n    require(destination.call.value(value)(data));\n    emit Spent(destination, value, data);\n  }\n\n  // Confirm that the two signature triplets (v1, r1, s1) and (v2, r2, s2)\n  // both authorize a spend of this contract's funds to the given\n  // destination address.\n  function _validSignature(address destination, uint256 value, bytes data,\n    uint8 v1, bytes32 r1, bytes32 s1, uint8 v2, bytes32 r2, bytes32 s2) private constant returns (bool) {\n    bytes32 message = _messageToRecover(destination, value, data);\n    address addr1   = ecrecover(message, v1+27, r1, s1);\n    address addr2   = ecrecover(message, v2+27, r2, s2);\n    require(_distinctOwners(addr1, addr2));\n    return true;\n  }\n\n  // Generate the the unsigned message (in bytes32) that each owner's\n  // Trezor would have signed for the given destination and amount.\n  //\n  // The generated message from generateMessageToSign is converted to\n  // ascii when signed by a trezor.\n  //\n  // The required Trezor signing prefix, the length of this\n  // unsigned message, and the unsigned ascii message itself are\n  // then concatenated and hashed with keccak256.\n  function _messageToRecover(address destination, uint256 value, bytes data) private constant returns (bytes32) {\n    bytes32 hashedUnsignedMessage = generateMessageToSign(destination, value, data);\n    bytes memory unsignedMessageBytes = _hashToAscii(hashedUnsignedMessage);\n    bytes memory prefix = \"\\x19Ethereum Signed Message:\\n\";\n    return keccak256(prefix,bytes1(unsignedMessageBytes.length),unsignedMessageBytes);\n  }\n\n  \n  // Confirm the pair of addresses as two distinct owners of this contract.\n  function _distinctOwners(address addr1, address addr2) private constant returns (bool) {\n    // Check that both addresses are different\n    require(addr1 != addr2);\n    // Check that both addresses are owners\n    require(owners[addr1]);\n    require(owners[addr2]);\n    return true;\n  }\n\n\n  // Construct the byte representation of the ascii-encoded\n  // hashed message written in hex.\n   function _hashToAscii(bytes32 hash) private pure returns (bytes) {\n    bytes memory s = new bytes(64);\n    for (uint i = 0; i < 32; i++) {\n      byte b  = hash[i];\n      byte hi = byte(uint8(b) / 16);\n      byte lo = byte(uint8(b) - 16 * uint8(hi));\n      s[2*i]   = _char(hi);\n      s[2*i+1] = _char(lo);            \n    }\n    return s;    \n  }\n  \n  // Convert from byte to ASCII of 0-f\n  // http://www.unicode.org/charts/PDF/U0000.pdf\n  function _char(byte b) private pure returns (byte c) {\n    if (b < 10) return byte(uint8(b) + 0x30);\n    else return byte(uint8(b) + 0x57);\n  }\n}\n",
  "sourcePath": "/Users/vgorin/DEVELOP/upwork/Zenprivex/ethereum-multisig/contracts/TrezorMultiSig2of3.sol",
  "compiler": {
    "name": "solc",
    "version": "0.4.23+commit.124ca40d.Emscripten.clang"
  },
  "schemaVersion": "2.0.0",
  "updatedAt": "2018-05-19T20:35:58.477Z"
}